


ARM Macro Assembler    Page 1 


    1 00000000                 PRESERVE8
    2 00000000                 THUMB
    3 00000000         
    4 00000000         ; Vector Table Mapped to Address 0 at Reset
    5 00000000                 AREA             RESET, DATA, READONLY
    6 00000000         
    7 00000000 00000000 
                       __Vectors
                               DCD              0
    8 00000004 00000000        DCD              Reset_Handler ; Reset Handler
    9 00000008         
   10 00000008         
   11 00000008                 AREA             |.text|, CODE, READONLY
   12 00000000         
   13 00000000         ; Reset handler
   14 00000000         Reset_Handler
                               PROC
   15 00000000                 IMPORT           mymain
   16 00000000 F8DF D004       LDR              SP, =(0x20000000 + 0x5000)
   17 00000004 F7FF FFFE       BL               mymain
   18 00000008                 ENDP
   19 00000008                 END
              20005000 
Command Line: --debug --xref --diag_suppress=9931 --cpu=Cortex-M3 --apcs=interw
ork --depend=.\objects\start.d -o.\objects\start.o -ID:\Data\MDK\Packs\Keil\STM
32F1xx_DFP\2.4.1\Device\Include --predefine="__UVISION_VERSION SETA 538" --pred
efine="STM32F10X_MD SETA 1" --list=.\listings\start.lst start.s



ARM Macro Assembler    Page 1 Alphabetic symbol ordering
Relocatable symbols

RESET 00000000

Symbol: RESET
   Definitions
      At line 5 in file start.s
   Uses
      None
Comment: RESET unused
__Vectors 00000000

Symbol: __Vectors
   Definitions
      At line 7 in file start.s
   Uses
      None
Comment: __Vectors unused
2 symbols



ARM Macro Assembler    Page 1 Alphabetic symbol ordering
Relocatable symbols

.text 00000000

Symbol: .text
   Definitions
      At line 11 in file start.s
   Uses
      None
Comment: .text unused
Reset_Handler 00000000

Symbol: Reset_Handler
   Definitions
      At line 14 in file start.s
   Uses
      At line 8 in file start.s
Comment: Reset_Handler used once
2 symbols



ARM Macro Assembler    Page 1 Alphabetic symbol ordering
External symbols

mymain 00000000

Symbol: mymain
   Definitions
      At line 15 in file start.s
   Uses
      At line 17 in file start.s
Comment: mymain used once
1 symbol
339 symbols in table
